{
  "contractName": "StaircaseBondingCurve",
  "abi": [
    {
      "inputs": [
        {
          "internalType": "contract IERC20",
          "name": "_baseToken",
          "type": "address"
        },
        {
          "internalType": "uint256[]",
          "name": "_steps",
          "type": "uint256[]"
        },
        {
          "internalType": "uint256[]",
          "name": "_pricesM",
          "type": "uint256[]"
        },
        {
          "internalType": "uint256",
          "name": "_initSupply",
          "type": "uint256"
        },
        {
          "internalType": "address payable",
          "name": "_beneficiary",
          "type": "address"
        }
      ],
      "stateMutability": "nonpayable",
      "type": "constructor"
    },
    {
      "anonymous": false,
      "inputs": [
        {
          "indexed": true,
          "internalType": "address",
          "name": "owner",
          "type": "address"
        },
        {
          "indexed": true,
          "internalType": "address",
          "name": "spender",
          "type": "address"
        },
        {
          "indexed": false,
          "internalType": "uint256",
          "name": "value",
          "type": "uint256"
        }
      ],
      "name": "Approval",
      "type": "event"
    },
    {
      "anonymous": false,
      "inputs": [
        {
          "indexed": true,
          "internalType": "address",
          "name": "from",
          "type": "address"
        },
        {
          "indexed": true,
          "internalType": "address",
          "name": "to",
          "type": "address"
        },
        {
          "indexed": false,
          "internalType": "uint256",
          "name": "value",
          "type": "uint256"
        }
      ],
      "name": "Transfer",
      "type": "event"
    },
    {
      "inputs": [
        {
          "internalType": "address",
          "name": "owner",
          "type": "address"
        },
        {
          "internalType": "address",
          "name": "spender",
          "type": "address"
        }
      ],
      "name": "allowance",
      "outputs": [
        {
          "internalType": "uint256",
          "name": "",
          "type": "uint256"
        }
      ],
      "stateMutability": "view",
      "type": "function",
      "constant": true
    },
    {
      "inputs": [
        {
          "internalType": "address",
          "name": "spender",
          "type": "address"
        },
        {
          "internalType": "uint256",
          "name": "amount",
          "type": "uint256"
        }
      ],
      "name": "approve",
      "outputs": [
        {
          "internalType": "bool",
          "name": "",
          "type": "bool"
        }
      ],
      "stateMutability": "nonpayable",
      "type": "function"
    },
    {
      "inputs": [
        {
          "internalType": "address",
          "name": "account",
          "type": "address"
        }
      ],
      "name": "balanceOf",
      "outputs": [
        {
          "internalType": "uint256",
          "name": "",
          "type": "uint256"
        }
      ],
      "stateMutability": "view",
      "type": "function",
      "constant": true
    },
    {
      "inputs": [],
      "name": "baseToken",
      "outputs": [
        {
          "internalType": "contract IERC20",
          "name": "",
          "type": "address"
        }
      ],
      "stateMutability": "view",
      "type": "function",
      "constant": true
    },
    {
      "inputs": [],
      "name": "beneficiary",
      "outputs": [
        {
          "internalType": "address payable",
          "name": "",
          "type": "address"
        }
      ],
      "stateMutability": "view",
      "type": "function",
      "constant": true
    },
    {
      "inputs": [],
      "name": "decimals",
      "outputs": [
        {
          "internalType": "uint8",
          "name": "",
          "type": "uint8"
        }
      ],
      "stateMutability": "view",
      "type": "function",
      "constant": true
    },
    {
      "inputs": [
        {
          "internalType": "address",
          "name": "spender",
          "type": "address"
        },
        {
          "internalType": "uint256",
          "name": "subtractedValue",
          "type": "uint256"
        }
      ],
      "name": "decreaseAllowance",
      "outputs": [
        {
          "internalType": "bool",
          "name": "",
          "type": "bool"
        }
      ],
      "stateMutability": "nonpayable",
      "type": "function"
    },
    {
      "inputs": [
        {
          "internalType": "address",
          "name": "spender",
          "type": "address"
        },
        {
          "internalType": "uint256",
          "name": "addedValue",
          "type": "uint256"
        }
      ],
      "name": "increaseAllowance",
      "outputs": [
        {
          "internalType": "bool",
          "name": "",
          "type": "bool"
        }
      ],
      "stateMutability": "nonpayable",
      "type": "function"
    },
    {
      "inputs": [],
      "name": "initSupply",
      "outputs": [
        {
          "internalType": "uint256",
          "name": "",
          "type": "uint256"
        }
      ],
      "stateMutability": "view",
      "type": "function",
      "constant": true
    },
    {
      "inputs": [],
      "name": "name",
      "outputs": [
        {
          "internalType": "string",
          "name": "",
          "type": "string"
        }
      ],
      "stateMutability": "view",
      "type": "function",
      "constant": true
    },
    {
      "inputs": [
        {
          "internalType": "uint256",
          "name": "",
          "type": "uint256"
        }
      ],
      "name": "pricesM",
      "outputs": [
        {
          "internalType": "uint256",
          "name": "",
          "type": "uint256"
        }
      ],
      "stateMutability": "view",
      "type": "function",
      "constant": true
    },
    {
      "inputs": [],
      "name": "step",
      "outputs": [
        {
          "internalType": "uint8",
          "name": "",
          "type": "uint8"
        }
      ],
      "stateMutability": "view",
      "type": "function",
      "constant": true
    },
    {
      "inputs": [
        {
          "internalType": "uint256",
          "name": "",
          "type": "uint256"
        }
      ],
      "name": "steps",
      "outputs": [
        {
          "internalType": "uint256",
          "name": "",
          "type": "uint256"
        }
      ],
      "stateMutability": "view",
      "type": "function",
      "constant": true
    },
    {
      "inputs": [],
      "name": "symbol",
      "outputs": [
        {
          "internalType": "string",
          "name": "",
          "type": "string"
        }
      ],
      "stateMutability": "view",
      "type": "function",
      "constant": true
    },
    {
      "inputs": [],
      "name": "totalSupply",
      "outputs": [
        {
          "internalType": "uint256",
          "name": "",
          "type": "uint256"
        }
      ],
      "stateMutability": "view",
      "type": "function",
      "constant": true
    },
    {
      "inputs": [
        {
          "internalType": "address",
          "name": "recipient",
          "type": "address"
        },
        {
          "internalType": "uint256",
          "name": "amount",
          "type": "uint256"
        }
      ],
      "name": "transfer",
      "outputs": [
        {
          "internalType": "bool",
          "name": "",
          "type": "bool"
        }
      ],
      "stateMutability": "nonpayable",
      "type": "function"
    },
    {
      "inputs": [
        {
          "internalType": "address",
          "name": "sender",
          "type": "address"
        },
        {
          "internalType": "address",
          "name": "recipient",
          "type": "address"
        },
        {
          "internalType": "uint256",
          "name": "amount",
          "type": "uint256"
        }
      ],
      "name": "transferFrom",
      "outputs": [
        {
          "internalType": "bool",
          "name": "",
          "type": "bool"
        }
      ],
      "stateMutability": "nonpayable",
      "type": "function"
    },
    {
      "inputs": [],
      "name": "getSteps",
      "outputs": [
        {
          "internalType": "uint256[]",
          "name": "",
          "type": "uint256[]"
        }
      ],
      "stateMutability": "view",
      "type": "function",
      "constant": true
    },
    {
      "inputs": [],
      "name": "getPricesM",
      "outputs": [
        {
          "internalType": "uint256[]",
          "name": "",
          "type": "uint256[]"
        }
      ],
      "stateMutability": "view",
      "type": "function",
      "constant": true
    },
    {
      "inputs": [
        {
          "internalType": "uint256",
          "name": "amount",
          "type": "uint256"
        }
      ],
      "name": "mintCost",
      "outputs": [
        {
          "internalType": "uint256",
          "name": "",
          "type": "uint256"
        },
        {
          "internalType": "uint8",
          "name": "",
          "type": "uint8"
        }
      ],
      "stateMutability": "view",
      "type": "function",
      "constant": true
    },
    {
      "inputs": [
        {
          "internalType": "address",
          "name": "account",
          "type": "address"
        },
        {
          "internalType": "uint256",
          "name": "amount",
          "type": "uint256"
        }
      ],
      "name": "mint",
      "outputs": [],
      "stateMutability": "payable",
      "type": "function",
      "payable": true
    }
  ],
  "bytecode": "0x6080604052620f42406006556000600a60006101000a81548160ff021916908360ff1602179055503480156200003457600080fd5b506040516200255c3803806200255c833981810160405260a08110156200005a57600080fd5b8101908080519060200190929190805160405193929190846401000000008211156200008557600080fd5b838201915060208201858111156200009c57600080fd5b8251866020820283011164010000000082111715620000ba57600080fd5b8083526020830192505050908051906020019060200280838360005b83811015620000f3578082015181840152602081019050620000d6565b50505050905001604052602001805160405193929190846401000000008211156200011d57600080fd5b838201915060208201858111156200013457600080fd5b82518660208202830111640100000000821117156200015257600080fd5b8083526020830192505050908051906020019060200280838360005b838110156200018b5780820151818401526020810190506200016e565b5050505090500160405260200180519060200190929190805190602001909291905050506040518060400160405280601381526020017f5f507274636c204e617469766520546f6b656e000000000000000000000000008152506040518060400160405280600381526020017f5550520000000000000000000000000000000000000000000000000000000000815250816003908051906020019062000233929190620005af565b5080600490805190602001906200024c929190620005af565b506012600560006101000a81548160ff021916908360ff160217905550505084600b60006101000a81548173ffffffffffffffffffffffffffffffffffffffff021916908373ffffffffffffffffffffffffffffffffffffffff1602179055508360079080519060200190620002c492919062000636565b508260089080519060200190620002dd92919062000636565b5080600a60016101000a81548173ffffffffffffffffffffffffffffffffffffffff021916908373ffffffffffffffffffffffffffffffffffffffff1602179055506200033133836200034360201b60201c565b816009819055505050505050620006a7565b600073ffffffffffffffffffffffffffffffffffffffff168273ffffffffffffffffffffffffffffffffffffffff161415620003e7576040517f08c379a000000000000000000000000000000000000000000000000000000000815260040180806020018281038252601f8152602001807f45524332303a206d696e7420746f20746865207a65726f20616464726573730081525060200191505060405180910390fd5b620003fb600083836200052160201b60201c565b62000417816002546200052660201b620013741790919060201c565b60028190555062000475816000808573ffffffffffffffffffffffffffffffffffffffff1673ffffffffffffffffffffffffffffffffffffffff168152602001908152602001600020546200052660201b620013741790919060201c565b6000808473ffffffffffffffffffffffffffffffffffffffff1673ffffffffffffffffffffffffffffffffffffffff168152602001908152602001600020819055508173ffffffffffffffffffffffffffffffffffffffff16600073ffffffffffffffffffffffffffffffffffffffff167fddf252ad1be2c89b69c2b068fc378daa952ba7f163c4a11628f55a4df523b3ef836040518082815260200191505060405180910390a35050565b505050565b600080828401905083811015620005a5576040517f08c379a000000000000000000000000000000000000000000000000000000000815260040180806020018281038252601b8152602001807f536166654d6174683a206164646974696f6e206f766572666c6f77000000000081525060200191505060405180910390fd5b8091505092915050565b828054600181600116156101000203166002900490600052602060002090601f016020900481019282601f10620005f257805160ff191683800117855562000623565b8280016001018555821562000623579182015b828111156200062257825182559160200191906001019062000605565b5b50905062000632919062000688565b5090565b82805482825590600052602060002090810192821562000675579160200282015b828111156200067457825182559160200191906001019062000657565b5b50905062000684919062000688565b5090565b5b80821115620006a357600081600090555060010162000689565b5090565b611ea580620006b76000396000f3fe60806040526004361061012a5760003560e01c806340c10f19116100ab57806397d63f931161006f57806397d63f93146106de578063a457c2d714610709578063a9059cbb1461077a578063c55dae63146107eb578063dd62ed3e1461082c578063e25fe175146108b15761012a565b806340c10f19146104e05780635da65ada1461052e57806370a082311461059a5780637217e0b9146105ff57806395d89b411461064e5761012a565b8063313ce567116100f2578063313ce56714610345578063344c18781461037357806338af3eed146103c257806339509351146104035780634011ba5e146104745761012a565b806306fdde031461012f578063095ea7b3146101bf57806318160ddd1461023057806323b872dd1461025b57806327de8f27146102ec575b600080fd5b34801561013b57600080fd5b506101446108df565b6040518080602001828103825283818151815260200191508051906020019080838360005b83811015610184578082015181840152602081019050610169565b50505050905090810190601f1680156101b15780820380516001836020036101000a031916815260200191505b509250505060405180910390f35b3480156101cb57600080fd5b50610218600480360360408110156101e257600080fd5b81019080803573ffffffffffffffffffffffffffffffffffffffff16906020019092919080359060200190929190505050610981565b60405180821515815260200191505060405180910390f35b34801561023c57600080fd5b5061024561099f565b6040518082815260200191505060405180910390f35b34801561026757600080fd5b506102d46004803603606081101561027e57600080fd5b81019080803573ffffffffffffffffffffffffffffffffffffffff169060200190929190803573ffffffffffffffffffffffffffffffffffffffff169060200190929190803590602001909291905050506109a9565b60405180821515815260200191505060405180910390f35b3480156102f857600080fd5b506103256004803603602081101561030f57600080fd5b8101908080359060200190929190505050610a82565b604051808381526020018260ff1681526020019250505060405180910390f35b34801561035157600080fd5b5061035a610c72565b604051808260ff16815260200191505060405180910390f35b34801561037f57600080fd5b506103ac6004803603602081101561039657600080fd5b8101908080359060200190929190505050610c89565b6040518082815260200191505060405180910390f35b3480156103ce57600080fd5b506103d7610caa565b604051808273ffffffffffffffffffffffffffffffffffffffff16815260200191505060405180910390f35b34801561040f57600080fd5b5061045c6004803603604081101561042657600080fd5b81019080803573ffffffffffffffffffffffffffffffffffffffff16906020019092919080359060200190929190505050610cd0565b60405180821515815260200191505060405180910390f35b34801561048057600080fd5b50610489610d83565b6040518080602001828103825283818151815260200191508051906020019060200280838360005b838110156104cc5780820151818401526020810190506104b1565b505050509050019250505060405180910390f35b61052c600480360360408110156104f657600080fd5b81019080803573ffffffffffffffffffffffffffffffffffffffff16906020019092919080359060200190929190505050610ddb565b005b34801561053a57600080fd5b50610543611060565b6040518080602001828103825283818151815260200191508051906020019060200280838360005b8381101561058657808201518184015260208101905061056b565b505050509050019250505060405180910390f35b3480156105a657600080fd5b506105e9600480360360208110156105bd57600080fd5b81019080803573ffffffffffffffffffffffffffffffffffffffff1690602001909291905050506110b8565b6040518082815260200191505060405180910390f35b34801561060b57600080fd5b506106386004803603602081101561062257600080fd5b8101908080359060200190929190505050611100565b6040518082815260200191505060405180910390f35b34801561065a57600080fd5b50610663611121565b6040518080602001828103825283818151815260200191508051906020019080838360005b838110156106a3578082015181840152602081019050610688565b50505050905090810190601f1680156106d05780820380516001836020036101000a031916815260200191505b509250505060405180910390f35b3480156106ea57600080fd5b506106f36111c3565b6040518082815260200191505060405180910390f35b34801561071557600080fd5b506107626004803603604081101561072c57600080fd5b81019080803573ffffffffffffffffffffffffffffffffffffffff169060200190929190803590602001909291905050506111c9565b60405180821515815260200191505060405180910390f35b34801561078657600080fd5b506107d36004803603604081101561079d57600080fd5b81019080803573ffffffffffffffffffffffffffffffffffffffff16906020019092919080359060200190929190505050611296565b60405180821515815260200191505060405180910390f35b3480156107f757600080fd5b506108006112b4565b604051808273ffffffffffffffffffffffffffffffffffffffff16815260200191505060405180910390f35b34801561083857600080fd5b5061089b6004803603604081101561084f57600080fd5b81019080803573ffffffffffffffffffffffffffffffffffffffff169060200190929190803573ffffffffffffffffffffffffffffffffffffffff1690602001909291905050506112da565b6040518082815260200191505060405180910390f35b3480156108bd57600080fd5b506108c6611361565b604051808260ff16815260200191505060405180910390f35b606060038054600181600116156101000203166002900480601f0160208091040260200160405190810160405280929190818152602001828054600181600116156101000203166002900480156109775780601f1061094c57610100808354040283529160200191610977565b820191906000526020600020905b81548152906001019060200180831161095a57829003601f168201915b5050505050905090565b600061099561098e6113fc565b8484611404565b6001905092915050565b6000600254905090565b60006109b68484846115fb565b610a77846109c26113fc565b610a7285604051806060016040528060288152602001611dda60289139600160008b73ffffffffffffffffffffffffffffffffffffffff1673ffffffffffffffffffffffffffffffffffffffff1681526020019081526020016000206000610a286113fc565b73ffffffffffffffffffffffffffffffffffffffff1673ffffffffffffffffffffffffffffffffffffffff168152602001908152602001600020546118bc9092919063ffffffff16565b611404565b600190509392505050565b60008060008390506000610aa8600954610a9a61099f565b61197c90919063ffffffff16565b90506000819050600080600a60009054906101000a900460ff1690505b6000851115610bf85760006001600780549050038260ff1610610aea57859050610b33565b6000610b1c8560076001860160ff1681548110610b0357fe5b906000526020600020015461197c90919063ffffffff16565b9050868110610b2d57869150610b31565b8091505b505b6000610b628260088560ff1681548110610b4957fe5b90600052602060002001546119c690919063ffffffff16565b905060006006548281610b7157fe5b0690506000811115610b87578060065403820191505b6000610b9e60065484611a4c90919063ffffffff16565b9050610bb3848a61197c90919063ffffffff16565b9850610bc8848861137490919063ffffffff16565b9650610bdd818761137490919063ffffffff16565b95506000891115610bef576001850194505b50505050610ac5565b610c0b888561137490919063ffffffff16565b8314610c62576040517f08c379a0000000000000000000000000000000000000000000000000000000008152600401808060200182810382526025815260200180611d6e6025913960400191505060405180910390fd5b8181965096505050505050915091565b6000600560009054906101000a900460ff16905090565b60088181548110610c9657fe5b906000526020600020016000915090505481565b600a60019054906101000a900473ffffffffffffffffffffffffffffffffffffffff1681565b6000610d79610cdd6113fc565b84610d748560016000610cee6113fc565b73ffffffffffffffffffffffffffffffffffffffff1673ffffffffffffffffffffffffffffffffffffffff16815260200190815260200160002060008973ffffffffffffffffffffffffffffffffffffffff1673ffffffffffffffffffffffffffffffffffffffff1681526020019081526020016000205461137490919063ffffffff16565b611404565b6001905092915050565b60606008805480602002602001604051908101604052809291908181526020018280548015610dd157602002820191906000526020600020905b815481526020019060010190808311610dbd575b5050505050905090565b600080610de783610a82565b9150915080600a60006101000a81548160ff021916908360ff160217905550600073ffffffffffffffffffffffffffffffffffffffff16600b60009054906101000a900473ffffffffffffffffffffffffffffffffffffffff1673ffffffffffffffffffffffffffffffffffffffff1614610f7057600b60009054906101000a900473ffffffffffffffffffffffffffffffffffffffff1673ffffffffffffffffffffffffffffffffffffffff166323b872dd33600a60019054906101000a900473ffffffffffffffffffffffffffffffffffffffff16856040518463ffffffff1660e01b8152600401808473ffffffffffffffffffffffffffffffffffffffff1681526020018373ffffffffffffffffffffffffffffffffffffffff1681526020018281526020019350505050602060405180830381600087803b158015610f2f57600080fd5b505af1158015610f43573d6000803e3d6000fd5b505050506040513d6020811015610f5957600080fd5b810190808051906020019092919050505050611050565b81341015610fe6576040517f08c379a00000000000000000000000000000000000000000000000000000000081526004018080602001828103825260158152602001807f66756e64732073656e74206e6f7420656e6f756768000000000000000000000081525060200191505060405180910390fd5b600a60019054906101000a900473ffffffffffffffffffffffffffffffffffffffff1673ffffffffffffffffffffffffffffffffffffffff166108fc349081150290604051600060405180830381858888f1935050505015801561104e573d6000803e3d6000fd5b505b61105a8484611a96565b50505050565b606060078054806020026020016040519081016040528092919081815260200182805480156110ae57602002820191906000526020600020905b81548152602001906001019080831161109a575b5050505050905090565b60008060008373ffffffffffffffffffffffffffffffffffffffff1673ffffffffffffffffffffffffffffffffffffffff168152602001908152602001600020549050919050565b6007818154811061110d57fe5b906000526020600020016000915090505481565b606060048054600181600116156101000203166002900480601f0160208091040260200160405190810160405280929190818152602001828054600181600116156101000203166002900480156111b95780601f1061118e576101008083540402835291602001916111b9565b820191906000526020600020905b81548152906001019060200180831161119c57829003601f168201915b5050505050905090565b60095481565b600061128c6111d66113fc565b8461128785604051806060016040528060258152602001611e4b60259139600160006112006113fc565b73ffffffffffffffffffffffffffffffffffffffff1673ffffffffffffffffffffffffffffffffffffffff16815260200190815260200160002060008a73ffffffffffffffffffffffffffffffffffffffff1673ffffffffffffffffffffffffffffffffffffffff168152602001908152602001600020546118bc9092919063ffffffff16565b611404565b6001905092915050565b60006112aa6112a36113fc565b84846115fb565b6001905092915050565b600b60009054906101000a900473ffffffffffffffffffffffffffffffffffffffff1681565b6000600160008473ffffffffffffffffffffffffffffffffffffffff1673ffffffffffffffffffffffffffffffffffffffff16815260200190815260200160002060008373ffffffffffffffffffffffffffffffffffffffff1673ffffffffffffffffffffffffffffffffffffffff16815260200190815260200160002054905092915050565b600a60009054906101000a900460ff1681565b6000808284019050838110156113f2576040517f08c379a000000000000000000000000000000000000000000000000000000000815260040180806020018281038252601b8152602001807f536166654d6174683a206164646974696f6e206f766572666c6f77000000000081525060200191505060405180910390fd5b8091505092915050565b600033905090565b600073ffffffffffffffffffffffffffffffffffffffff168373ffffffffffffffffffffffffffffffffffffffff16141561148a576040517f08c379a0000000000000000000000000000000000000000000000000000000008152600401808060200182810382526024815260200180611e276024913960400191505060405180910390fd5b600073ffffffffffffffffffffffffffffffffffffffff168273ffffffffffffffffffffffffffffffffffffffff161415611510576040517f08c379a0000000000000000000000000000000000000000000000000000000008152600401808060200182810382526022815260200180611d4c6022913960400191505060405180910390fd5b80600160008573ffffffffffffffffffffffffffffffffffffffff1673ffffffffffffffffffffffffffffffffffffffff16815260200190815260200160002060008473ffffffffffffffffffffffffffffffffffffffff1673ffffffffffffffffffffffffffffffffffffffff168152602001908152602001600020819055508173ffffffffffffffffffffffffffffffffffffffff168373ffffffffffffffffffffffffffffffffffffffff167f8c5be1e5ebec7d5bd14f71427d1e84f3dd0314c0f7b2291e5b200ac8c7c3b925836040518082815260200191505060405180910390a3505050565b600073ffffffffffffffffffffffffffffffffffffffff168373ffffffffffffffffffffffffffffffffffffffff161415611681576040517f08c379a0000000000000000000000000000000000000000000000000000000008152600401808060200182810382526025815260200180611e026025913960400191505060405180910390fd5b600073ffffffffffffffffffffffffffffffffffffffff168273ffffffffffffffffffffffffffffffffffffffff161415611707576040517f08c379a0000000000000000000000000000000000000000000000000000000008152600401808060200182810382526023815260200180611d296023913960400191505060405180910390fd5b611712838383611c5d565b61177d81604051806060016040528060268152602001611d93602691396000808773ffffffffffffffffffffffffffffffffffffffff1673ffffffffffffffffffffffffffffffffffffffff168152602001908152602001600020546118bc9092919063ffffffff16565b6000808573ffffffffffffffffffffffffffffffffffffffff1673ffffffffffffffffffffffffffffffffffffffff16815260200190815260200160002081905550611810816000808573ffffffffffffffffffffffffffffffffffffffff1673ffffffffffffffffffffffffffffffffffffffff1681526020019081526020016000205461137490919063ffffffff16565b6000808473ffffffffffffffffffffffffffffffffffffffff1673ffffffffffffffffffffffffffffffffffffffff168152602001908152602001600020819055508173ffffffffffffffffffffffffffffffffffffffff168373ffffffffffffffffffffffffffffffffffffffff167fddf252ad1be2c89b69c2b068fc378daa952ba7f163c4a11628f55a4df523b3ef836040518082815260200191505060405180910390a3505050565b6000838311158290611969576040517f08c379a00000000000000000000000000000000000000000000000000000000081526004018080602001828103825283818151815260200191508051906020019080838360005b8381101561192e578082015181840152602081019050611913565b50505050905090810190601f16801561195b5780820380516001836020036101000a031916815260200191505b509250505060405180910390fd5b5060008385039050809150509392505050565b60006119be83836040518060400160405280601e81526020017f536166654d6174683a207375627472616374696f6e206f766572666c6f7700008152506118bc565b905092915050565b6000808314156119d95760009050611a46565b60008284029050828482816119ea57fe5b0414611a41576040517f08c379a0000000000000000000000000000000000000000000000000000000008152600401808060200182810382526021815260200180611db96021913960400191505060405180910390fd5b809150505b92915050565b6000611a8e83836040518060400160405280601a81526020017f536166654d6174683a206469766973696f6e206279207a65726f000000000000815250611c62565b905092915050565b600073ffffffffffffffffffffffffffffffffffffffff168273ffffffffffffffffffffffffffffffffffffffff161415611b39576040517f08c379a000000000000000000000000000000000000000000000000000000000815260040180806020018281038252601f8152602001807f45524332303a206d696e7420746f20746865207a65726f20616464726573730081525060200191505060405180910390fd5b611b4560008383611c5d565b611b5a8160025461137490919063ffffffff16565b600281905550611bb1816000808573ffffffffffffffffffffffffffffffffffffffff1673ffffffffffffffffffffffffffffffffffffffff1681526020019081526020016000205461137490919063ffffffff16565b6000808473ffffffffffffffffffffffffffffffffffffffff1673ffffffffffffffffffffffffffffffffffffffff168152602001908152602001600020819055508173ffffffffffffffffffffffffffffffffffffffff16600073ffffffffffffffffffffffffffffffffffffffff167fddf252ad1be2c89b69c2b068fc378daa952ba7f163c4a11628f55a4df523b3ef836040518082815260200191505060405180910390a35050565b505050565b60008083118290611d0e576040517f08c379a00000000000000000000000000000000000000000000000000000000081526004018080602001828103825283818151815260200191508051906020019080838360005b83811015611cd3578082015181840152602081019050611cb8565b50505050905090810190601f168015611d005780820380516001836020036101000a031916815260200191505b509250505060405180910390fd5b506000838581611d1a57fe5b04905080915050939250505056fe45524332303a207472616e7366657220746f20746865207a65726f206164647265737345524332303a20617070726f766520746f20746865207a65726f206164647265737373686f756c64206861766520636f6e73756d6564207468652077686f6c6520616d6f756e7445524332303a207472616e7366657220616d6f756e7420657863656564732062616c616e6365536166654d6174683a206d756c7469706c69636174696f6e206f766572666c6f7745524332303a207472616e7366657220616d6f756e74206578636565647320616c6c6f77616e636545524332303a207472616e736665722066726f6d20746865207a65726f206164647265737345524332303a20617070726f76652066726f6d20746865207a65726f206164647265737345524332303a2064656372656173656420616c6c6f77616e63652062656c6f77207a65726fa2646970667358221220f16813c44f90bbb72d33a3bdbb3e5adc350e689edfeb582a9b503deacb04bf0d64736f6c634300060c0033",
  "immutableReferences": {},
  "source": "// SPDX-License-Identifier: MIT\npragma solidity >=0.6.0;\n\nimport \"./openzeppelin/contracts/token/ERC20/IERC20.sol\";\nimport \"./openzeppelin/contracts/token/ERC20/ERC20.sol\";\n\n/** mint tokens based on a price that is a stepwise function on the total supply */\ncontract StaircaseBondingCurve is ERC20 {\n\n    using SafeMath for uint256;\n    uint256 MEGAS = 1000000;\n\n    /** the current step number in the staircase function */\n    uint256[] public steps;\n    uint256[] public pricesM;\n\n    uint256 public initSupply;\n    uint8 public step = 0;\n    address payable public beneficiary;\n\n    IERC20 public baseToken;\n\n    constructor(\n        IERC20 _baseToken, \n        uint256[] memory _steps, \n        uint256[] memory _pricesM, \n        uint256 _initSupply, \n        address payable _beneficiary) \n        ERC20(\"_Prtcl Native Token\", \"UPR\") public {\n\n        baseToken = _baseToken;\n        steps = _steps;\n        pricesM = _pricesM;\n\n        beneficiary = _beneficiary;\n        \n        _mint(msg.sender, _initSupply);\n\n        initSupply = _initSupply;\n    }\n\n    function getSteps() public view returns (uint256[] memory) {\n        return steps;\n    }\n\n    function getPricesM() public view returns (uint256[] memory) {\n        return pricesM;\n    }\n\n    function mintCost(uint256 amount) public view returns(uint256, uint8) {\n        uint256 unspent = amount;\n        // the bonding curve applies to new tokens only\n        uint256 supply0 = totalSupply().sub(initSupply);\n        uint256 supply = supply0;\n        uint256 cost = 0;\n        uint8 stepTemp = step;\n        \n        while(unspent > 0) {\n            uint256 spentOnStep = 0;\n            if (stepTemp >= (steps.length - 1)) {\n                // on last step\n                spentOnStep = unspent;\n            } else {\n                uint256 availableOnStep = steps[stepTemp + 1].sub(supply);\n                if (availableOnStep >= unspent) {\n                    spentOnStep = unspent;\n                } else {\n                    spentOnStep = availableOnStep;\n                }\n            }\n\n            uint256 costStepM = pricesM[stepTemp].mul(spentOnStep);\n            uint256 costStepMremainer = costStepM % MEGAS;\n            // roundup\n            if (costStepMremainer > 0) {\n                costStepM = costStepM + (MEGAS - costStepMremainer);\n            }\n            uint256 costStep = costStepM.div(MEGAS);\n           \n            unspent = unspent.sub(spentOnStep);\n            supply = supply.add(spentOnStep);\n            cost = cost.add(costStep);\n            \n            if (unspent > 0) {\n                stepTemp = stepTemp + 1;\n            }\n        }\n\n        require(supply == supply0.add(amount), \"should have consumed the whole amount\");\n        \n        return (cost, stepTemp);\n    }\n\n    /** Mints amount tokens to address \"account\" by transferring the an amount of baseTokens \n        defined by the price() function to the beneficiary */\n    function mint(address account, uint256 amount) public payable {\n        (uint256 cost, uint8 newStep) = mintCost(amount);\n        step = newStep;\n\n        if (address(baseToken) != address(0)) {\n            baseToken.transferFrom(msg.sender, beneficiary, cost);\n        } else {\n            require(msg.value >= cost, \"funds sent not enough\");\n            beneficiary.transfer(msg.value);\n        }\n\n        _mint(account, amount);\n    }\n\n    \n}",
  "sourcePath": "/home/pepo/pr/reasonable/stairwise-token/contracts/StaircaseBondingCurve.sol",
  "compiler": {
    "name": "solc",
    "version": "0.6.12+commit.27d51765.Emscripten.clang"
  },
  "schemaVersion": "3.3.2",
  "updatedAt": "2020-12-10T10:44:47.127Z",
  "networkType": "ethereum",
  "devdoc": {
    "kind": "dev",
    "methods": {
      "allowance(address,address)": {
        "details": "See {IERC20-allowance}."
      },
      "approve(address,uint256)": {
        "details": "See {IERC20-approve}. Requirements: - `spender` cannot be the zero address."
      },
      "balanceOf(address)": {
        "details": "See {IERC20-balanceOf}."
      },
      "decimals()": {
        "details": "Returns the number of decimals used to get its user representation. For example, if `decimals` equals `2`, a balance of `505` tokens should be displayed to a user as `5,05` (`505 / 10 ** 2`). Tokens usually opt for a value of 18, imitating the relationship between Ether and Wei. This is the value {ERC20} uses, unless {_setupDecimals} is called. NOTE: This information is only used for _display_ purposes: it in no way affects any of the arithmetic of the contract, including {IERC20-balanceOf} and {IERC20-transfer}."
      },
      "decreaseAllowance(address,uint256)": {
        "details": "Atomically decreases the allowance granted to `spender` by the caller. This is an alternative to {approve} that can be used as a mitigation for problems described in {IERC20-approve}. Emits an {Approval} event indicating the updated allowance. Requirements: - `spender` cannot be the zero address. - `spender` must have allowance for the caller of at least `subtractedValue`."
      },
      "increaseAllowance(address,uint256)": {
        "details": "Atomically increases the allowance granted to `spender` by the caller. This is an alternative to {approve} that can be used as a mitigation for problems described in {IERC20-approve}. Emits an {Approval} event indicating the updated allowance. Requirements: - `spender` cannot be the zero address."
      },
      "name()": {
        "details": "Returns the name of the token."
      },
      "symbol()": {
        "details": "Returns the symbol of the token, usually a shorter version of the name."
      },
      "totalSupply()": {
        "details": "See {IERC20-totalSupply}."
      },
      "transfer(address,uint256)": {
        "details": "See {IERC20-transfer}. Requirements: - `recipient` cannot be the zero address. - the caller must have a balance of at least `amount`."
      },
      "transferFrom(address,address,uint256)": {
        "details": "See {IERC20-transferFrom}. Emits an {Approval} event indicating the updated allowance. This is not required by the EIP. See the note at the beginning of {ERC20}. Requirements: - `sender` and `recipient` cannot be the zero address. - `sender` must have a balance of at least `amount`. - the caller must have allowance for ``sender``'s tokens of at least `amount`."
      }
    },
    "version": 1
  },
  "userdoc": {
    "kind": "user",
    "methods": {
      "mint(address,uint256)": {
        "notice": "Mints amount tokens to address \"account\" by transferring the an amount of baseTokens  defined by the price() function to the beneficiary "
      },
      "steps(uint256)": {
        "notice": "the current step number in the staircase function "
      }
    },
    "notice": "mint tokens based on a price that is a stepwise function on the total supply ",
    "version": 1
  }
}